:100000000208D4FE7C007D280200B2020FB8759869
:1000100050438920438780758DFF758BFF43A890DF
:10002000D28E22020C7EBB010689828A83E0225096
:1000300002E722BBFE02E32289828A83E49322BB89
:10004000010CE58229F582E5833AF583E02250062A
:10005000E92582F8E622BBFE06E92582F8E222E5E0
:100060008229F582E5833AF583E49322BB01068970
:10007000828A83F0225002F722BBFE01F322F8BBF2
:10008000010DE58229F582E5833AF583E8F02250F7
:1000900006E92582C8F622BBFE05E92582C8F222C0
:1000A000EF8DF0A4A8F0CF8CF0A428CE8DF0A42E74
:1000B000FE22BC000BBE0029EF8DF084FFADF022C4
:1000C000E4CCF875F008EF2FFFEE33FEEC33FCEED6
:1000D0009DEC984005FCEE9DFE0FD5F0E9E4CEFDC9
:1000E00022EDF8F5F0EE8420D21CFEADF075F0089C
:1000F000EF2FFFED33FD4007985006D5F0F222C3F5
:1001000098FD0FD5F0EA22BB0110E58229F582E5C2
:10011000833AF583E0F5F0A3E0225009E92582F85F
:1001200086F008E622BBFE0AE92582F8E2F5F0082F
:10013000E222E5832AF583E993F5F0A3E99322759A
:10014000F008758200EF2FFFEE33FECD33CDCC33B8
:10015000CCC58233C5829BED9AEC99E58298400C20
:10016000F582EE9BFEED9AFDEC99FC0FD5F0D6E4FE
:10017000CEFBE4CDFAE4CCF9A88222B800C1B900E4
:1001800059BA002DEC8BF084CFCECDFCE5F0CBF945
:100190007818EF2FFFEE33FEED33FDEC33FCEB333D
:1001A000FB10D703994004EB99FB0FD8E5E4F9FA6B
:1001B000227818EF2FFFEE33FEED33FDEC33FCC950
:1001C00033C910D7059BE99A4007EC9BFCE99AF9E3
:1001D0000FD8E0E4C9FAE4CCFB2275F010EF2FFF52
:1001E000EE33FEED33FDCC33CCC833C810D7079BBC
:1001F000EC9AE899400AED9BFDEC9AFCE899F80F1F
:10020000D5F0DAE4CDFBE4CCFAE4C8F922EB9FF5B3
:10021000F0EA9E42F0E99D42F0E89C45F022E86059
:100220000FECC313FCED13FDEE13FEEF13FFD8F13B
:100230002232003235300038300031323500312E74
:100240003600343000353000F5F2F0ECE9E6E2DE5D
:10025000D9D5D0CBC6C1BBB6B0AAA49E98928C8685
:100260008079736D67615B554F49443E39342F2A5D
:1002700026211D1916130F0D0A0806040302010199
:1002800001010102030406080A0D0F1316191D21AE
:10029000262A2F34393E44494F555B61676D737987
:1002A0007F868C92989EA4AAB0B6BBC1C6CBD0D58F
:1002B000D9DEE2E6E9ECF0F2F5F7F9FBFCFDFEFE33
:1002C000FEFEFEFDFCFBF9F7F5F2F0ECE9E6E2DEFE
:1002D000D9D5D0CBC6C1BBB64F49443E39342F2AFD
:1002E00026211D1916130F0D0A0806040302010129
:1002F00001010102030406080A0D0F1316191D213E
:10030000262A2F34393E44494F555B61676D737916
:100310007F868C92989EA4AAB0B6BBC1C6CBD0D51E
:10032000D9DEE2E6E9ECF0F2F5F7F9FBFCFDFEFEC2
:10033000FEFEFEFDFCFBF9F7F5F2F0ECE9E6E2DE8D
:10034000D9D5D0CBC6C1BBB6F5F2F0ECE9E6E2DE1A
:10035000D9D5D0CBC6C1BBB6B0AAA49E98928C8684
:100360008079736D67615B55E47896F608F608F658
:10037000753701F538F53908F608F608F612104910
:1003800012000E1210297F2C7E017D007C00120BC2
:10039000591209601207D8ED4C700CE5376008E47B
:1003A000F537120695800C1207D8ED64014C7003E6
:1003B0007537017B007A0079667D287C001208275A
:1003C0008E388F39D3E5399400E538940040C57BE9
:1003D000007A0079667899A60308A60208A6011299
:1003E00007ED7896F624FD60082452601E24B07054
:1003F000A37868E6FE08E6FDEEFC08E6FE08E6FBEC
:10040000EEFA7867E6FF1210578089900002120713
:10041000F37897F624EF601124106003020394AD83
:1004200039AC38120F970203949000071207F37843
:1004300098F614602B24DB605B2416B4050040039F
:1004400002039490045175F003A4C58325F0C5837D
:100450007302046702047002047902048202048BAE
:10046000AD39AC38120F971207A312049D02039402
:100470001207A312059C0203941207A3120D410256
:1004800003941207A31209E00203941207A3120BAC
:10049000F00203941207A3120C370203948B3A8ADA
:1004A0003B893C8C3D8D3E90000812003FF53F900B
:1004B000000912003FF5401207E6AA3BA93C1207CB
:1004C0006DAB3AAA3BA93C1207C07891E61846707A
:1004D000127893E66401184670097D02FC7F01FEE4
:1004E000020E677891E6184670187893E664031850
:1004F00046700F7546F8F547FB7D01FC7F03FE0251
:100500000BA912080770197893E664031846701057
:100510001205847B011205907D04120572020E996A
:10052000120807701C7893E66404184670131205CD
:10053000847D01120816120DF57D03120572020E5C
:10054000CB120807702B7893E6640618467022FBDE
:100550007D04FC7F02FE120DBB7D03120816120DF6
:10056000BBE4FB7D02FC7F02FE120D817B021205C3
:100570009022E4FBFC7F02FE120DBB7D027C007F1B
:10058000027E00227B017D02FC7F02FE120D812291
:100590007D017C007F027E00120DF5228B3A8A3BA2
:1005A000893C8C3D8D3EE4F558F559F55AF55B12C2
:1005B00007E6AA3BA93C12076DAB3AAA3BA93C123D
:1005C00007C07891E66401184660030206947893A8
:1005D000E6640218466003020694AB3A12081DE96D
:1005E000255BF9EA355AFA120026603212081D0519
:1005F0005BE55BAE5A7002055A1429F9EA3EFA121D
:10060000002624D0FBE434FFFAAE58AF597C007DBD
:100610000A1200A0EF2BF559EE3AF55880BCE558C8
:10062000C313F558E55913F559AE58FF7C007D64A6
:100630001200B2EF2430F53F7C007D641200A0C3AD
:10064000E5599FFFE5589EFE7D0A1200B2EF243067
:10065000F540AE58AF591207DFED2430F541E4F50F
:1006600042E53FB4300FE540B4300A85413FE4F540
:1006700040F541800EE53FB4300985403F8541405B
:10068000E4F5417B007A00793F7D057C007F017EA7
:1006900000120CC0227894E6FA08E6FBFF120F1E47
:1006A0007C007D0A1200B2ED2430F53A753B2EAF86
:1006B00003120F1EED2431F53C121039788FE664D9
:1006C000011846701EFB7A00793A7D06FC7F01FE18
:1006D000120CC07D07120F11120CC07D08120F11F1
:1006E000020CC0788FE66403184670327549FF75B6
:1006F0004A02754B48F54C754D80FB7D01FC7F032C
:10070000FE120B057549FF754A02754BD8754C00F2
:10071000754D80E4FB7D01FC7F03FE020B05788FA5
:10072000E6640418467028120EFD8F4B8E4AF54978
:10073000F5487D01FC7F04FE120AA6120EFD8F4BC8
:100740008E4AF549F5487D02FC7F04FE020AA67830
:100750008FE6640518467014120EFD8F4B8E4AF515
:1007600049F5487D01FC7F05FE120A4722FD9000F5
:100770000312003F7890F6ED08F6E92405F9E43A13
:10078000FA90000112003FFD22FFEE4CFCEF4DFD00
:1007900090000A12003F4CFEEDFF90000B12003F4C
:1007A000FDEE227899860308E6FA08E6F9AD39AC41
:1007B0003822FDAC0690000812003F7E0078182217
:1007C00090000512003F7892F6ED08F6229000099D
:1007D00012003F7E007810227894E6FE08E6FF7C47
:1007E000007D0A0200B2E92403F9E43AFA9000011C
:1007F00002003F7899860308E6FA08E6F902003F0E
:10080000AA3BA93C02003F7891E66402184622AA5E
:100810003BA93C02003FE4FBFC7F02FE22E53C24B6
:1008200008F9E4353BFA228B3A8A3B893C8C3D8DB2
:100830003EE4F53FF540F541120FD6D3EF9400EEBC
:10084000940050030208D07B007A007941120F4FC8
:10085000E53645357005E541B4EEDDC3E536953E38
:10086000E535953D501AAB3AAA3BA93C0536E5362D
:10087000AE357002053514F5828E83E54112007E97
:10088000E541B4FF18E50824FD600804700A750806
:10089000038023750804801E7508018019E541B4A2
:1008A000FC11E50824FD600624027007800075082D
:1008B000028003E4F508E508640460030208388553
:1008C000353F853640F508F535F536AE3FAF402269
:1008D000E4FEFF22787FE4F6D8FD75819B02091BB8
:1008E000020368E493A3F8E493A34003F68001F2C3
:1008F00008DFF48029E493A3F85407240CC8C33319
:10090000C4540F4420C8834004F456800146F6DFE7
:10091000E4800B0102040810204080900D01E47E69
:10092000019360BCA3FF543F30E509541FFEE493DC
:10093000A360010ECF54C025E060A840B8E493A3A3
:10094000FAE493A3F8E493A3C8C582C8CAC583CACE
:10095000F0A3C8C582C8CAC583CADFE9DEE780BE86
:100960007A0279317D011209C87A0279337D021247
:1009700009C87A0279377D031209D47A02793A7D5F
:10098000051209D47BFF7A02793E7D06120F1712F9
:100990000CC07BFF7A0279427D07120F17120CC040
:1009A0007BFF7A0279457D08120F17120CC07B017C
:1009B0007D037C007F027E00120DBB7B017D017CEC
:1009C000007F027E00020DF57BFF7C007F017E0030
:1009D000120CC0227BFF7C007F017E00120CC02223
:1009E0008B3A8A3B893C8C3D8D3E1207CDC333CE7A
:1009F00033CED8F91207B2C333CE33CED8F91207AB
:100A000089F53FEF4DF540E9240312077DAB3AAA83
:100A10003BA93C12076EAB3AAA3BA93C1207C0782F
:100A200091E664051846701E7893E66402184670D5
:100A300015E54025E0FFE53F33FE7C007DFF120019
:100A4000B2AF05121003228E448F458C468D47129B
:100A5000106A7FB11210627F10121062E544FF121B
:100A60001062AF45E545121062E546FF121062AF15
:100A700047E547120A9A120F27120A9A120F4812D4
:100A80001062AF4BAE4AAD49AC48120F2C12106247
:100A9000E54BFFE4121062020FEF121062AF4BAE93
:100AA0004AAD49AC48228E448F458C468D47121082
:100AB0006A7FB11210627F10121062E544FF1210BB
:100AC00062AF45E545121062E546FF121062AF477E
:100AD000E547120AF9120F27120AF9120F481210ED
:100AE00062AF4BAE4AAD49AC48120F2C121062E512
:100AF0004BFFE4121062020FEF121062AF4BAE4ACE
:100B0000AD49AC48228E448F458C468D478B4812A8
:100B1000106A7FB11210627F35121062E544FF1235
:100B20001062AF45E545121062E546FF121062AF54
:100B300047E547121062E548FF121062E54CFF12CC
:100B40001062AF4DE54D121062AB49AA4AA94BADF8
:100B50004DAC4C120E2F020FEF8F3D8E3C8D3B8C17
:100B60003A7894E6FE08E6FFE48F418E40F53FF5C3
:100B70003EE47B0AFAF9F8AF3DAE3CAD3BAC3A122D
:100B8000017BC006C0077894E6FE08E6FFC3EF9538
:100B900041FBEE9540FAE4953FF9E4953EF8D00725
:100BA000D006D312020D40C9228E418F428C438D54
:100BB000448B4512106A7FB11210627F30121062AE
:100BC000E541FF121062AF42E542121062E543FFB9
:100BD000121062AF44E544121062E545FF12106244
:100BE000E546FF121062AF47E547121062020FEFB1
:100BF0008B3A8A3B893C8C3D8D3EE9240312077D6C
:100C0000900003120800F53FEDF54012077A9000BE
:100C100005120800F541EDF5421207CDC333CE337E
:100C2000CED8F91207B2C333CE33CED8F912078922
:100C3000F543EF4DF544228B3A8A3B893C8C3D8D40
:100C40003EE9240312077D90000312080FF53FEDE3
:100C5000F54012077A90000512080FF541EDF542B4
:100C60001207CDC333CE33CED8F91207B2C333CE79
:100C700033CED8F9120789F543EF4DF54422C0E091
:100C8000C0F0C083C082C0D075D000C000C001C019
:100C900002C003C004C005C006C007309807C29850
:100CA000AF99120F74D007D006D005D004D003D06E
:100CB00002D001D000D0D0D082D083D0F0D0E032AA
:100CC0008E5C8F5D8C5E8D5F8B608A618962121095
:100CD0006A7FB11210627F10121062E55CFF121081
:100CE00062AF5DE55D121062E55EFF121062AF5FFC
:100CF000E55F121062AB60AA61A962121016020FC2
:100D0000EF202C090000000000000000000000009F
:100D100000000000000000000000000000000000D3
:100D200000000000000000000000000000000000C3
:100D30000108000235000001650001630001640044
:100D4000008B3A8A3B893C8C3D8D3E1207CDC333E4
:100D5000CE33CED8F91207B2C333CE33CED8F91280
:100D60000789F53FEF4DF540E9240312077DAB3AC3
:100D7000AA3BA93C12076EAB3AAA3BA93C1207C09A
:100D8000228E418F428C438D448B4512106A7FB175
:100D90001210627F03121062E541FF121062AF422F
:100DA000E542121062E543FF121062AF44E54412BF
:100DB0001062E545FF121062020FEF8E418F428CE8
:100DC000438D448B4512106A7FB11210627F10125E
:100DD0001062E541FF121062AF42E542121062E577
:100DE00043FF121062AF44E544121062E545FF1262
:100DF0001062020FEF8E418F428C438D448B45125F
:100E0000106A7FB11210627F23121062E541FF1257
:100E10001062AF42E542121062E543FF121062AF6A
:100E200044E544121062E545FF121062020FEF8B99
:100E30004E8A4F89508C518D52E4F553F554C3E5D9
:100E4000549552E5539551501DAB4EAA4FA950856C
:100E5000548285538312003FFF1210620554E554FB
:100E600070DC055380D8228E418F428C438D441212
:100E7000106A7FB11210627F11121062E541FF12F9
:100E80001062AF42E542121062E543FF121062AFFA
:100E900044E544121062020FEF8E418F428C438D65
:100EA0004412106A7FB11210627F20121062E54175
:100EB000FF121062AF42E542121062E543FF1210CA
:100EC00062AF44E544121062020FEF8E418F428CF4
:100ED000438D4412106A7FB11210627F211210629A
:100EE000E541FF121062AF42E542121062E543FF96
:100EF000121062AF44E544121062020FEF7894E6DC
:100F0000FE08E6FF7C007D641200B2AE04AF05E48B
:100F1000227B007A00793A7C007F017E00227C00EF
:100F20007D0AAE020200B2781012021E7808120288
:100F30001EE422E50025E0FFE50033AB00AA00A98E
:100F4000008F82F583020107781012021EE422E569
:100F50000C650A7004E50B65096018740D250CF822
:100F6000E612006CE50C2401FFE4350B1200038C43
:100F70000B8D0C22AB07E50A2401FFE435091200B2
:100F800003ED650C7003EC650B600B740D250AF81E
:100F9000A6038C098D0A228C3D8D3E8B3A8A3B89B3
:100FA0003CE9240312077DAA3BA93C9000031200F0
:100FB0003F788EF6ED08F622C0E0C0D075D000C0B4
:100FC00000758CDC758A32789506E618700106D0BB
:100FD00000D0D0D0E032E50A2428FFE43509FEC372
:100FE000EF950CFFEE950B120003AE04AF05227FC8
:100FF000FF1210627FFC1210627FFF1210627FFFEF
:101000000210628F4112106A7F60121062E541FF88
:10101000121062020FEF120026FF600C12106274B1
:101020000129F9E43AFA80EE22E4F50BF50CF50912
:10103000F50AF508F535F5362212106A7FB112105F
:10104000627F01121062020FEF758909758CDC75E1
:101050008A32D28CD2A9228F3A8C3B8D3C8A3D8B2E
:0F1060003E228F993099FDC299227FEE021062D5
:00000001FF
